:020000040800F2
:1000000000500020891E0008B51B0008BB1B00081B
:10001000C11B0008C71B0008CD1B00080000000022
:10002000000000000000000000000000D31B0008DA
:10003000DF1B000800000000EB1B0008F71B000896
:10004000D11E0008D11E0008D11E0008D11E0008D4
:10005000D11E0008D11E0008D11E0008D11E0008C4
:10006000D11E0008D11E0008031C0008D11E000884
:10007000D11E0008D11E0008D11E0008D11E0008A4
:10008000D11E0008D11E0008D11E0008D11E000894
:10009000D11E0008D11E0008D11E0008D11E000884
:1000A000D11E0008D11E0008D11E0008D11E000874
:1000B000D11E0008D11E0008D11E0008D11E000864
:1000C000D11E0008D11E0008D11E0008D11E000854
:1000D000D11E0008D11E0008D11E0008D11E000844
:1000E000D11E0008D11E0008D11E0008000000002B
:1000F0000000000000000000000000000000000000
:0C01000000000000000000005FF808F1A3
:10010C0010B5054C237833B9044B13B10448AFF345
:10011C0000800123237010BD70000020000000003F
:10012C009C52000808B5034B1BB103490348AFF3BD
:10013C00008008BD00000000740000209C520008E4
:10014C0010F8012B11F8013B012A28BF9A42F7D075
:10015C00D01A7047034613F8012B002AFBD1181A4A
:10016C0001387047B0B48FB000AF786040F2B11373
:10017C00FB62072387F83030072387F831300123DF
:10018C0087F83230FF2387F83630642387F837300E
:10019C000823BB867B681D4607F10C040FCC0FC5EA
:1001AC000FCC0FC594E8070085E8070078683C374A
:1001BC00BD46B0BC704780B584B000AF7860396084
:1001CC000121786800F09FF90346BB73BB7BFB737E
:1001DC003B68002B07D1BB7B23F00703FB737B68C9
:1001EC000022DA613EE03B68012B0CD197F90E300E
:1001FC0023F007035BB243F001035BB2FB737B6834
:10020C000122DA612EE03B68032B0CD197F90E30FA
:10021C0023F007035BB243F003035BB2FB737B6811
:10022C000322DA611EE03B68052B0CD197F90E30E6
:10023C0023F007035BB243F005035BB2FB737B68EF
:10024C000522DA610EE03B68062B0BD197F90E30D4
:10025C0023F007035BB243F006035BB2FB737B68CE
:10026C000622DA61FB7B1A460121786800F065F9F9
:10027C0000BF1037BD4680BD80B584B000AFF860BC
:10028C00B9603B601346FB80FB681868FB689B8871
:10029C000022194602F030F9FB689869FA884FF48D
:1002AC00FA63B96802F0ECFD00BFFB689B69184665
:1002BC0003F0F1F90346012BF7D1FB6898693A8BEF
:1002CC004FF4FA63396802F01EFF00BFFB689B69AC
:1002DC00184603F0E0F90346012BF7D1FB681868C8
:1002EC00FB689B880122194602F006F900BF103703
:1002FC00BD4680BD80B584B000AFF860B9603B608E
:10030C001346FB80FB681868FB689B880022194623
:10031C0002F0F2F8FB689869FA884FF4FA63B9684E
:10032C0002F0AEFD00BFFB689B69184603F0B3F901
:10033C000346012BF7D1FB6898693A8B4FF4FA63AB
:10034C00396802F09DFD00BFFB689B69184603F0FD
:10035C00A2F90346012BF7D1FB681868FB689B8850
:10036C000122194602F0C8F800BF1037BD4680BD07
:10037C0080B584B000AF786039603B68DB045B11FA
:10038C00FB60FB681B0CFB72FB7A1A460621786833
:10039C0000F0D3F8052001F0F9FDFB681B0AFB7295
:1003AC00FB7A1A460721786800F0C7F8052001F09F
:1003BC00EDFDFB68FB72FB7A1A460821786800F0A9
:1003CC00BCF8052001F0E2FD00BF1037BD4680BD32
:1003DC0080B584B000AF786039603B680C2B01DDD0
:1003EC000C233B603B68062B01DC07233B601E2182
:1003FC00786800F088F80346FB730A2001F0C6FD0C
:10040C003B68DBB21B01DAB2FB7B03F00F03DBB200
:10041C001344BB73BB7B1A461E21786800F08DF821
:10042C000A2001F0B3FD00BF1037BD4680BD80B57A
:10043C0082B000AF78600B46FB70FB781A4609213E
:10044C00786800F07AF80A2001F0A0FD00BF0837A8
:10045C00BD4680BD80B584B000AF78600B46FB70A4
:10046C000023FB73FB782C2B01D82D23FB70FB781E
:10047C00F02B01D9F023FB70FB78782B09D8FB7893
:10048C002D3B124A82FB03125210DB17D31AFB735B
:10049C000BE0FB78F02B08D8FB781E330B4A82FB61
:1004AC0003129210DB17D31AFB73FB7B2033FB7305
:1004BC00FB7B1A460B21786800F03FF80A2001F00C
:1004CC0065FD00BF1037BD4680BD00BF6766666620
:1004DC0080B584B000AF78601E21786800F013F806
:1004EC000346FB73FB7B43F00703BB73BB7B1A46D2
:1004FC001E21786800F021F80A2001F047FD00BFAA
:10050C001037BD4680BD80B586B002AF78600B4613
:10051C00FB70FB7803F07F03DBB2BB7307F10F03B7
:10052C0007F10E010122009201227868FFF7A4FE68
:10053C00FB7B18461037BD4680BD80B586B002AF38
:10054C0078600B46FB701346BB70FB7863F07F033F
:10055C00DBB2BB73BB78FB7307F10F0307F10E0122
:10056C000122009201227868FFF7C4FE00BF103709
:10057C00BD4680BD80B586B000AFF8607A601A4683
:10058C000B46FB721346BB72FB7A63F07F03DBB244
:10059C00FB75FB681868FB689B880022194601F004
:1005AC00ABFFFB68986907F117014FF4FA6301225E
:1005BC0002F066FC00BFFB689B69184603F06BF801
:1005CC000346012BF7D1FB689869BB7A9AB24FF4BA
:1005DC00FA63796802F054FC00BFFB689B6918460B
:1005EC0003F059F80346012BF7D1FB681868FB6838
:1005FC009B880122194601F07FFF00BF1837BD46CA
:10060C0080BD80B483B000AF7860012318460C37EE
:10061C00BD4680BC704780B586B000AFF860B9604D
:10062C0011461A460B46FB711346BB80FB68DB690F
:10063C007B610121F868FFF7BEFD0E21F868FFF71A
:10064C0062FF0346FB74FB7C1A460D21F868FFF72A
:10065C0074FFFB791A462221F868FFF76EFFFB79CD
:10066C00BA680021F868FFF785FF0321F868FFF7E7
:10067C00A2FD1221F868FFF746FF0346FB74FB7CD2
:10068C0003F00803002B0AD0FF221221F868FFF7B1
:10069C0054FF7969F868FFF78EFD01230FE0BB88E2
:1006AC00013BBB80BB88002B05D17969F868FFF74B
:1006BC0082FD002303E0012001F068FCD9E7184615
:1006CC001837BD4680BD80B582B000AF786005217B
:1006DC007868FFF770FD00BF0837BD4680BD90B548
:1006EC0089B000AFF860B9601346FB710023FB774B
:1006FC000023BB6107E0BB69BA68134400221A707F
:10070C00BB690133BB61FB79BA699A42F3DB012106
:10071C00F868FFF750FD1221F868FFF7F4FE034666
:10072C00FB74FB7C03F04003002B2FD0FF22122123
:10073C00F868FFF702FF1321F868FFF7E4FE0346A1
:10074C00BB741021F868FFF7DEFE0346FB74FB7CDC
:10075C001A460D21F868FFF7F0FEBA7CFB7993423C
:10076C0028BF1346FB7700237B610BE07B69BA68DB
:10077C00D4180021F868FFF7C6FE034623707B6986
:10078C0001337B61FB7F7A699A42EFDB0521F868C4
:10079C00FFF711FDFB7F18462437BD4690BD80B591
:1007AC0084B000AF78601A217868FFF7ACFE03467E
:1007BC00FB73FB7BA43B18461037BD4680BD80B550
:1007CC0084B000AF78607868FFF71BFF0346002BFE
:1007DC0000F08C8001217868FFF795FE0346FB73CF
:1007EC000A2001F0D3FBFB7B63F07F03BB73BB7B65
:1007FC001A4601217868FFF7A0FE642001F0C6FBC1
:10080C007B681B6A19467868FFF7B2FD7B6893F822
:10081C002A3019467868FFF70AFE7B6893F82B306C
:10082C0019467868FFF716FE23220C217868FFF72B
:10083C0084FE7868FFF74CFE7B6893F824301946E9
:10084C007868FFF7C5FDFF221F217868FFF775FE5A
:10085C000023BB737B6893F825301B01DAB27B68ED
:10086C0093F826305B00DBB21344BB73BB7B1A4698
:10087C001D217868FFF761FE7B681B8D1B0A9BB2FC
:10088C00DBB21A4620217868FFF757FE7B681B8D78
:10089C00DBB21A4621217868FFF74FFE40217868B9
:1008AC00FFF731FE0346FB73FB7B43F03F03BB7347
:1008BC00BB7B1A4640217868FFF73FFE0121786820
:1008CC00FFF779FC7B680122DA610A2001F05EFBFC
:1008DC0042217868FFF717FE0346FB73FB7B122B54
:1008EC0001D1C82304E04FF4CA7301E040F2F713BE
:1008FC0018461037BD4680BD80B588B000AF786013
:10090C0007F10C0301220B49184603F0EFFA07F12B
:10091C000C031846FFF71EFC0346DAB207F10C0174
:10092C004FF47A737868FFF776FE00BF2037BD4628
:10093C0080BD00BFB452000890B597B000AF78608E
:10094C00396000237B65784B1B68002B00F00C8210
:10095C003B1D3B64754B3B65754BBB64BB6CFB64CF
:10096C0004237B64BBE03B6C1B781A463B6C013365
:10097C001B781B021A443B6C02331B781B041A4471
:10098C003B6C03331B781B061344FA6C1344FB6457
:10099C003B6C04331B781A463B6C05331B781B02EB
:1009AC001A443B6C06331B781B041A443B6C07330C
:1009BC001B781B061344BA6C1344BB643B6C0833A2
:1009CC001B781A463B6C09331B781B021A443B6C90
:1009DC000A331B781B041A443B6C0B331B781B0625
:1009EC0013443A6D13443B65FA6CBB6CD31AFB642D
:1009FC00FA6C3B6DD31AFB643B6D5B0BFA6C53408A
:100A0C00FB64BA6C3B6DD31ABB64BA6CFB6CD31A27
:100A1C00BB64FB6C1B02BA6C5340BB643A6DFB6C41
:100A2C00D31A3B653A6DBB6CD31A3B65BB6C5B0B45
:100A3C003A6D53403B65FA6CBB6CD31AFB64FA6C91
:100A4C003B6DD31AFB643B6D1B0BFA6C5340FB6480
:100A5C00BA6C3B6DD31ABB64BA6CFB6CD31ABB6417
:100A6C00FB6C1B04BA6C5340BB643A6DFB6CD31A21
:100A7C003B653A6DBB6CD31A3B65BB6C5B093A6D3D
:100A8C0053403B65FA6CBB6CD31AFB64FA6C3B6D40
:100A9C00D31AFB643B6DDB08FA6C5340FB64BA6CF5
:100AAC003B6DD31ABB64BA6CFB6CD31ABB64FB6C86
:100ABC009B02BA6C5340BB643A6DFB6CD31A3B651A
:100ACC003A6DBB6CD31A3B65BB6CDB0B3A6D534078
:100ADC003B653B6C0C333B647B6C0C3B7B647B6CF1
:100AEC000B2B3FF640AF3B6D04333B657B6C013BFE
:100AFC000A2B6BD801A252F823F000BFCD0B0008D3
:100B0C00BF0B0008B10B0008A30B0008950B0008E5
:100B1C00870B0008790B00086B0B00085D0B0008B5
:100B2C004F0B0008410B00088C000020EFBEEDFEBF
:100B3C00B979379E3B6C0A331B781B063A6D13440C
:100B4C003B653B6C09331B781B043A6D13443B65C6
:100B5C003B6C08331B781B023A6D13443B653B6CB2
:100B6C0007331B781B06BA6C1344BB643B6C06330F
:100B7C001B781B04BA6C1344BB643B6C05331B78A9
:100B8C001B02BA6C1344BB643B6C04331B781A46CF
:100B9C00BB6C1344BB643B6C03331B781B06FA6CB5
:100BAC001344FB643B6C02331B781B04FA6C134438
:100BBC00FB643B6C01331B781B02FA6C1344FB6423
:100BCC003B6C1B781A46FB6C1344FB64FA6CBB6CD5
:100BDC00D31AFB64FA6C3B6DD31AFB643B6D5B0B55
:100BEC00FA6C5340FB64BA6C3B6DD31ABB64BA6CA1
:100BFC00FB6CD31ABB64FB6C1B02BA6C5340BB641A
:100C0C003A6DFB6CD31A3B653A6DBB6CD31A3B65E2
:100C1C00BB6C5B0B3A6D53403B65FA6CBB6CD31AE7
:100C2C00FB64FA6C3B6DD31AFB643B6D1B0BFA6CCB
:100C3C005340FB64BA6C3B6DD31ABB64BA6CFB6C4F
:100C4C00D31ABB64FB6C1B04BA6C5340BB643A6D87
:100C5C00FB6CD31A3B653A6DBB6CD31A3B65BB6C12
:100C6C005B093A6D53403B65FA6CBB6CD31AFB6461
:100C7C00FA6C3B6DD31AFB643B6DDB08FA6C53408A
:100C8C00FB64BA6C3B6DD31ABB64BA6CFB6CD31AA5
:100C9C00BB64FB6C9B02BA6C5340BB643A6DFB6C3F
:100CAC00D31A3B653A6DBB6CD31A3B65BB6CDB0B43
:100CBC003A6D53403B6500237B65374B1B68002B1B
:100CCC0052D0354B1B689B685B68013B3A6D1340F7
:100CDC003B62314B1B689B6819683A6A13465B0090
:100CEC0013449B000B441B68002B12D02A4B1B682F
:100CFC009B6819683A6A13465B0013449B000B44CB
:100D0C001A68254B1B689B685B695B4213447B65C7
:100D1C0025E000237B6522E07B6D5B6A3A6D9A428D
:100D2C000DD17B6D1B6A042B09D17B6DDB69391DE1
:100D3C000422184602F0D6FF0346002B13D07B6D1D
:100D4C009B69002B09D07B6D9A69134B1B689B68C0
:100D5C005B695B4213447B6501E000237B657B6D23
:100D6C00002BD9D100E000BF7B6D002B40F05383EA
:100D7C00282002F0A7FF03467B657A687B6D1A601A
:100D8C007B6DFB62054BFB63054B7B637B6BBB6332
:100D9C0004233B63C2E000BF8C000020EFBEEDFEDD
:100DAC00B979379EFB6A1B781A46FB6A01331B78AC
:100DBC001B021A44FB6A02331B781B041A44FB6A9D
:100DCC0003331B781B061344BA6B1344BB63FB6AD7
:100DDC0004331B781A46FB6A05331B781B021A4432
:100DEC00FB6A06331B781B041A44FB6A07331B7817
:100DFC001B0613447A6B13447B63FB6A08331B7822
:100E0C001A46FB6A09331B781B021A44FB6A0A3325
:100E1C001B781B041A44FB6A0B331B781B06134408
:100E2C00FA6B1344FB63BA6B7B6BD31ABB63BA6B61
:100E3C00FB6BD31ABB63FB6B5B0BBA6B5340BB6393
:100E4C007A6BFB6BD31A7B637A6BBB6BD31A7B63AA
:100E5C00BB6B1B027A6B53407B63FA6BBB6BD31A75
:100E6C00FB63FA6B7B6BD31AFB637B6B5B0BFA6BD1
:100E7C005340FB63BA6B7B6BD31ABB63BA6BFB6BD4
:100E8C00D31ABB63FB6B1B0BBA6B5340BB637A6B04
:100E9C00FB6BD31A7B637A6BBB6BD31A7B63BB6B19
:100EAC001B047A6B53407B63FA6BBB6BD31AFB63EB
:100EBC00FA6B7B6BD31AFB637B6B5B09FA6B53404E
:100ECC00FB63BA6B7B6BD31ABB63BA6BFB6BD31A2A
:100EDC00BB63FB6BDB08BA6B5340BB637A6BFB6B7E
:100EEC00D31A7B637A6BBB6BD31A7B63BB6B9B0292
:100EFC007A6B53407B63FA6BBB6BD31AFB63FA6B55
:100F0C007B6BD31AFB637B6BDB0BFA6B5340FB6382
:100F1C00FB6A0C33FB623B6B0C3B3B633B6B0B2B5D
:100F2C003FF640AFFB6B0433FB633B6B013B0A2B7F
:100F3C0064D801A252F823F0FD0F0008EF0F00084F
:100F4C00E10F0008D30F0008C50F0008B70F000809
:100F5C00A90F00089B0F00088D0F00087F0F0008D9
:100F6C00710F0008FB6A0A331B781B06FA6B1344DB
:100F7C00FB63FB6A09331B781B04FA6B1344FB639A
:100F8C00FB6A08331B781B02FA6B1344FB63FB6A86
:100F9C0007331B781B067A6B13447B63FB6A06339F
:100FAC001B781B047A6B13447B63FB6A05331B7839
:100FBC001B027A6B13447B63FB6A04331B781A465F
:100FCC007B6B13447B63FB6A03331B781B06BA6B86
:100FDC001344BB63FB6A02331B781B04BA6B1344C8
:100FEC00BB63FB6A01331B781B02BA6B1344BB63F4
:100FFC00FB6A1B781A46BB6B1344BB63BA6B7B6BE7
:10100C00D31ABB63BA6BFB6BD31ABB63FB6B5B0B67
:10101C00BA6B5340BB637A6BFB6BD31A7B637A6BF3
:10102C00BB6BD31A7B63BB6B1B027A6B53407B632A
:10103C00FA6BBB6BD31AFB63FA6B7B6BD31AFB6338
:10104C007B6B5B0BFA6B5340FB63BA6B7B6BD31AFA
:10105C00BB63BA6BFB6BD31ABB63FB6B1B0BBA6B1F
:10106C005340BB637A6BFB6BD31A7B637A6BBB6BA2
:10107C00D31A7B63BB6B1B047A6B53407B63FA6B99
:10108C00BB6BD31AFB63FA6B7B6BD31AFB637B6B67
:10109C005B09FA6B5340FB63BA6B7B6BD31ABB6374
:1010AC00BA6BFB6BD31ABB63FB6BDB08BA6B53409D
:1010BC00BB637A6BFB6BD31A7B637A6BBB6BD31AF8
:1010CC007B63BB6B9B027A6B53407B63FA6BBB6B92
:1010DC00D31AFB63FA6B7B6BD31AFB637B6BDB0B57
:1010EC00FA6B5340FB637B6DFA6B5A627A6D7B6DC6
:1010FC00DA617B6D04221A62814B1B68002B4ED186
:10110C007B6D00221A617B6D0022DA602C2002F0CC
:10111C00D9FD03461A467B6D9A607B6D9B68002B4C
:10112C0003D14FF0FF3002F095FD7B6D9B682C22B4
:10113C000021184602F0E6FD7B6D9B687A6D083243
:10114C001A617B6D9B6820225A607B6D9B6805221F
:10115C009A607B6D9B6808225A617B6D9C684FF48A
:10116C00C07002F0AFFD034623607B6D9B68654A3F
:10117C009A627B6D9B681B68002B03D14FF0FF308C
:10118C0002F068FD7B6D9B681B684FF4C0720021F8
:10119C00184602F0B7FD5A4A7B6D13601FE0584B9E
:1011AC001B689A687B6D9A607B6D00221A61544BA8
:1011BC001B689B681A69524B1B689B685B695B4296
:1011CC001A447B6DDA604E4B1B689B681B697A6D09
:1011DC009A604B4B1B689B687A6D08321A61484BBE
:1011EC001B689B68DA680132DA60454B1B689B68A8
:1011FC005B68013BFA6B1340FB61414B1B689B68BE
:10120C001968FA6913465B0013449B000B44BB61DD
:10121C00BB695B685A1CBB695A60BB691A687B6DF9
:10122C009A617B6D00225A61BB691B68002B04D04C
:10123C00BB691B687A6D0832DA607B6D03F10802BA
:10124C00BB691A60BB695968BB699B685A1C134619
:10125C009B0013445B009942C0F0DD807B6D9B6862
:10126C005B6A002B40F0D7807B6D9B685A681346F5
:10127C005B001344DB00184602F024FD03467B613F
:10128C007B69002B03D14FF0FF3002F0E3FC7B6D48
:10129C009B685A6813465B001344DB001A46002116
:1012AC00786902F02FFD7B6D9B68DA687B6D9B681B
:1012BC009B680133DA407B6D9B68D9687B6D9B68BA
:1012CC005B685B00013B0B40002B01D0012100E06F
:1012DC0000217B6D9B680A449A617B6D9B680022A0
:1012EC00DA610023BB625FE07B6D9B681968BA6AA8
:1012FC0013465B0013449B000B441B687B624DE060
:10130C008C000020E11F11A07B6A1B693B617B6A8A
:10131C00DA697B6D9B685B685B00013B1340FB608B
:10132C00FA6813465B0013449B001A467B6913440E
:10133C00BB60BB685B685A1CBB685A60BB685A6868
:10134C007B6D9B689B699A4214D97B6D9B68DA69AB
:10135C000132DA61BB685A68BB689B68796D896831
:10136C00896901FB03F39A4204D9BB689B685A1C38
:10137C00BB689A607B6A0022DA60BB681A687B6A79
:10138C001A61BB681B68002B03D0BB681B687A6AA8
:10139C00DA60BB687A6A1A603B697B627B6A002BF5
:1013AC00B2D1BB6A0133BB627B6D9B685B68BA6A66
:1013BC009A4299D37B6D9B681B68184602F08AFC95
:1013CC007B6D9B685A687B6D9B6852005A607B6D85
:1013DC009B689A6801329A607B6D9B687A691A6087
:1013EC007B6D9B68DA697B6D9B68DB685B089A4256
:1013FC0004D97B6D9B681B6A013300E000237A6D76
:10140C00926813627B6D9B681B6A012B03D97B6D01
:10141C009B6801225A627B6D3A685A6000BF5C3748
:10142C00BD4690BD80B586B000AF574B1B687B6145
:10143C00554B1B68002B03D0534B1B681B6900E0FA
:10144C0000233B6196E07B690833FB60FB685B68BB
:10145C00002B14D1FB689B68002B10D14A4B1B68E6
:10146C009B681B68184602F035FC474B1B689B6851
:10147C00184602F02FFC444B00221A606DE0424BE0
:10148C001B689B681B69FA689A420BD1FB685A6807
:10149C003D4B1B689B685B6919463B4B1B689B6803
:1014AC000A441A61FB685B68002B0AD0FB685B6816
:1014BC00354A1268926852691344FA6892689A60C5
:1014CC0003E0FB689B68304A1360FB689B68002B49
:1014DC0009D0FB689B682C4A1268926852691344C5
:1014EC00FA6852685A60FB68DA69274B1B689B687C
:1014FC005B68013B1340BB60234B1B689B681968FE
:10150C00BA6813465B0013449B000B447B607B68FA
:10151C005B685A1E7B685A607B681B68FA689A4243
:10152C0003D1FB681A697B681A60FB68DB68002BC7
:10153C0004D0FB68DB68FA6812691A61FB681B69E6
:10154C00002B04D0FB681B69FA68D268DA600E4B7A
:10155C001B689B68DA68013ADA60786902F0BAFBBA
:10156C003B697B613B69002B02D03B691B6900E046
:10157C0000233B617B69002B7FF465AF00BF00BF8C
:10158C001837BD4680BD00BF8C00002080B586B0EA
:10159C0000AFF860B9607A603B601649F86802F0F9
:1015AC00CDFC78617B69002B1FD07969B86802F09B
:1015BC00BDFC1049002002F0C1FC78617B69002B56
:1015CC0013D0786902F03CFB02467B681A6009492B
:1015DC00002002F0B3FC78617B69002B05D07869A0
:1015EC0002F02EFB02463B681A6000BF1837BD465E
:1015FC0080BD00BFDC52000880B588B000AF07F199
:10160C00100300221A605A609A60DA60274B9B69BB
:10161C00264A43F020039361244B9B6903F020037B
:10162C00FB60FB68214B9B69204A43F004039361E8
:10163C001E4B9B6903F00403BB60BB681B4B9B698F
:10164C001A4A43F008039361184B9B6903F0080393
:10165C007B607B6801220321154800F04DFF1023AD
:10166C003B61144B7B610023BB6107F110031946EE
:10167C00114800F0BDFD03233B6101237B61002376
:10168C00BB610223FB6107F110031946084800F007
:10169C00AFFD002200210A2000F073FD0A2000F0AB
:1016AC008CFD00BF2037BD4680BD00BF001002403E
:1016BC00000C01400000111000080140B0B58CB0C6
:1016CC0000AF00F001FC00F077F8FFF795FF00F099
:1016DC00B9F900F05DFB304C3B461846FEF742FD75
:1016EC0025463C460FCC0FC50FCC0FC594E8070020
:1016FC0085E80700284B294A1A60274B01229A805B
:10170C00254B264A9A60244B02229A81224B244A6A
:10171C001A61214B10229A821F4B224A9A611E4B4E
:10172C004FF459721A621C4B072283F824201A4B6F
:10173C00072283F82520184B012283F82620164B0C
:10174C00FF2283F82A20144B822283F82B20124B81
:10175C0009221A851048FFF732F80346C82B02D12C
:10176C00114B01221A800C48FEF7ADFF4FF0FF33EE
:10177C0011220E490E4802F0E3F80748FFF7BCF8B7
:10178C004FF0FF3317220B49094802F0D9F84FF4F8
:10179C007A7000F0FBFBE9E790000020000C0140A0
:1017AC000008014044010020BC000020E052000869
:1017BC00A0010020F452000880B590B000AF07F1F2
:1017CC00180328220021184602F09CFA3B1D002227
:1017DC001A605A609A60DA601A610223BB610123B5
:1017EC00BB621023FB6202237B630023BB634FF4B9
:1017FC004023FB6307F11803184600F0ADFE0346C7
:10180C00002B01D000F018F90F237B600223BB6082
:10181C008023FB604FF480633B6100237B613B1DA5
:10182C000021184601F01AF90346002B01D000F0F4
:10183C0003F900BF4037BD4680BD00002DE9F043E1
:10184C00B3B000AF0346FB806B461E46FB88102BE3
:10185C000AD180226E496F48FEF741FF6D48FEF7B2
:10186C009EFF03466C4A13608023C7F8C030D7F83C
:10187C00C0104B1EC7F8BC300A4600239046994650
:10188C004FF000024FF000034FEAC90343EA5873CC
:10189C004FEAC8020A46002314461D464FF00002C8
:1018AC004FF00003EB0043EA5473E2000B4607339E
:1018BC00DB08DB00ADEB030D6B460033C7F8B8302B
:1018CC000023C7F8C43010E0514AD7F8C430134491
:1018DC001978D7F8B820D7F8C43013440A461A70D0
:1018EC00D7F8C4300133C7F8C430D7F8C420D7F8C0
:1018FC00C0309A42E8DBD7F8B820D7F8C030134490
:10190C0000221A70444B1B6807F13800D7F8B82036
:10191C00424902F0EBFA07F138031846FEF71AFCBD
:10192C0003469AB207F138014FF0FF333C4802F0FE
:10193C0007F807F11C0307F1200207F12401D7F87F
:10194C00B800FFF723FE07F1240336491846FEF7CB
:10195C00F7FB0346002B1CD13A6AFB6907F13800F0
:10196C00314902F0C3FA07F138031846FEF7F2FBCF
:10197C0003469AB207F138014FF0FF33284801F0C3
:10198C00DFFFFFF74FFD3B6AFA6911461846FEF779
:10199C00D3FF07F1240325491846FEF7D1FB034674
:1019AC00002B2ED11C4B1B6807F10800012220498B
:1019BC0002F09CFA07F108031846FEF7CBFB03462E
:1019CC009AB207F108014FF0FF33154801F0B8FF48
:1019DC004FF47A7000F0DAFA07F108031846FEF7B4
:1019EC00B9FB0346DAB207F108014FF47A730948E0
:1019FC00FEF711FE4FF0FF3310220E49084801F09C
:101A0C009FFFB54600BFCC37BD46BDE8F08300BF95
:101A1C00C000002090000020400100200C53000862
:101A2C00A00100201853000820530008345300086C
:101A3C003C5300084C53000880B400AF72B600BF92
:101A4C00FEE7000080B500AF174B184A1A60164B22
:101A5C004FF482725A60144B00229A60124B00228F
:101A6C00DA60114B00221A610F4B00225A610E4BA7
:101A7C004FF400729A610C4B1022DA610A4B00226F
:101A8C001A62094B00225A62074B00229A62064BDB
:101A9C000A22DA62044801F06FF90346002B01D0E8
:101AAC00FFF7CAFF00BF80BD440100200030014099
:101ABC0080B588B000AF786007F1100300221A607F
:101ACC005A609A60DA607B681B681B4A93422FD17C
:101ADC001A4B9B69194A43F480539361174B9B69CA
:101AEC0003F48053FB60FB68144B9B69134A43F06F
:101AFC0004039361114B9B6903F00403BB60BB6847
:101B0C00A0233B6102237B610323FB6107F11003DC
:101B1C0019460B4800F06CFB40233B6100237B61B2
:101B2C000023BB6107F110031946054800F060FB68
:101B3C0000BF2037BD4680BD003001400010024080
:101B4C000008014080B485B000AF154B9B69144A66
:101B5C0043F001039361124B9B6903F00103BB60DB
:101B6C00BB680F4BDB690E4A43F08053D3610C4BBF
:101B7C00DB6903F080537B607B680A4B5B68FB601E
:101B8C00FB6823F0E063FB60FB6843F00073FB60D1
:101B9C00044AFB68536000BF1437BD4680BC7047D5
:101BAC00001002400000014080B400AFFEE780B49A
:101BBC0000AFFEE780B400AFFEE780B400AFFEE7F5
:101BCC0080B400AFFEE780B400AF00BFBD4680BC60
:101BDC00704780B400AF00BFBD4680BC704780B476
:101BEC0000AF00BFBD4680BC704780B500AF00F0B1
:101BFC00B1F900BF80BD80B500AF102000F094FC9F
:101C0C0000BF80BD80B400AF01231846BD4680BC28
:101C1C00704780B582B000AF7860396002F014F87C
:101C2C00034616221A604FF0FF3318460837BD469C
:101C3C0080BD80B582B000AF78604FF0FF3178681E
:101C4C00FFF7E7FFFEE780B586B000AFF860B9603C
:101C5C007A6000237B610AE0AFF300800146BB6829
:101C6C005A1CBA60CAB21A707B6901337B617A69FB
:101C7C007B689A42F0DB7B6818461837BD4680BDFE
:101C8C0080B586B000AFF860B9607A6000237B61E4
:101C9C0009E0BB685A1CBA601B781846AFF3008089
:101CAC007B6901337B617A697B689A42F1DB7B68E3
:101CBC0018461837BD4680BD80B483B000AF78603D
:101CCC004FF0FF3318460C37BD4680BC704780B4CC
:101CDC0083B000AF786039603B684FF400525A60B3
:101CEC00002318460C37BD4680BC704780B483B0C7
:101CFC0000AF7860012318460C37BD4680BC704796
:101D0C0080B485B000AFF860B9607A6000231846E3
:101D1C001437BD4680BC704780B586B000AF786084
:101D2C00144A154BD31A7B617B693B61134B1B68BF
:101D3C00002B02D1114B124A1A60104B1A687B68A7
:101D4C0013443A699A4207D201F07EFF03460C22F3
:101D5C001A604FF0FF3309E0084B1B68FB60074B20
:101D6C001A687B681344054A1360FB6818461837D9
:101D7C00BD4680BD00500020000400009C010020E6
:101D8C000002002080B400AF00BFBD4680BC70478D
:101D9C0080B500AF114B124A1A60104B4FF4E13270
:101DAC005A600E4B00229A600C4B0022DA600B4BEF
:101DBC0000221A61094B0C225A61084B00229A61CD
:101DCC00064B0022DA61054801F06AFD0346002B40
:101DDC0001D0FFF731FE00BF80BD00BFA001002085
:101DEC000038014080B588B000AF786007F110036F
:101DFC0000221A605A609A60DA607B681B681C4A81
:101E0C00934231D11B4B9B691A4A43F48043936133
:101E1C00184B9B6903F48043FB60FB68154B9B6973
:101E2C00144A43F004039361124B9B6903F00403BF
:101E3C00BB60BB684FF400733B6102237B610323DF
:101E4C00FB6107F1100319460B4800F0D1F94FF470
:101E5C0080633B6100237B610023BB6107F11003AE
:101E6C001946054800F0C4F900BF2037BD4680BDB7
:101E7C00003801400010024000080140FFF782FFCB
:101E8C000B480C490C4A002302E0D458C4500433CC
:101E9C00C4188C42F9D3094A094C002301E01360A1
:101EAC000432A242FBD301F0E9FEFFF707FC7047B6
:101EBC000000002070000020E05500087000002099
:101ECC00FC010020FEE7000080B500AF084B1B684A
:101EDC00074A43F010031360032000F047F90F206A
:101EEC0000F008F8FFF72EFE0023184680BD00BF57
:101EFC000020024080B582B000AF7860124B1A68A7
:101F0C00124B1B7819464FF47A73B3FBF1F3B2FB07
:101F1C00F3F3184600F05FF90346002B01D00123C0
:101F2C000EE07B680F2B0AD8002279684FF0FF3047
:101F3C0000F027F9064A7B681360002300E00123B8
:101F4C0018460837BD4680BD000000200800002060
:101F5C000400002080B400AF054B1B781A46054BDB
:101F6C001B681344034A136000BFBD4680BC704716
:101F7C0008000020E801002080B400AF024B1B6871
:101F8C001846BD4680BC7047E801002080B584B07F
:101F9C0000AF7860FFF7F0FFB8607B68FB60FB6810
:101FAC00B3F1FF3F05D00A4B1B781A46FB6813446C
:101FBC00FB6000BFFFF7E0FF0246BB68D31AFA686C
:101FCC009A42F7D800BF00BF1037BD4680BD00BF96
:101FDC000800002080B485B000AF78607B6803F007
:101FEC000703FB600C4BDB68BB60BA684FF6FF0362
:101FFC001340BB60FB681A02BB68134343F0BF631A
:10200C0043F40033BB60044ABB68D36000BF143791
:10201C00BD4680BC704700BF00ED00E080B400AF4F
:10202C00044BDB681B0A03F007031846BD4680BC53
:10203C00704700BF00ED00E080B483B000AF0346F2
:10204C00FB7197F90730002B0BDBFB7903F01F02B8
:10205C00064997F907305B09012000FA02F241F8B2
:10206C00232000BF0C37BD4680BC704700E100E068
:10207C0080B483B000AF03463960FB7197F9073029
:10208C00002B0ADB3B68DAB20C4997F907301201D6
:10209C00D2B20B4483F800230AE03B68DAB2084959
:1020AC00FB7903F00F03043B1201D2B20B441A76F6
:1020BC0000BF0C37BD4680BC704700BF00E100E09C
:1020CC0000ED00E080B489B000AFF860B9607A60D0
:1020DC00FB6803F00703FB61FB69C3F10703042BE7
:1020EC0028BF0423BB61FB690433062B02D9FB69AF
:1020FC00033B00E000237B614FF0FF32BB6902FA27
:10210C0003F3DA43BB681A407B699A404FF0FF3106
:10211C007B6901FA03F3D9437B680B4013431846E0
:10212C002437BD4680BC704780B582B000AF786064
:10213C007B68013BB3F1807F01D301230FE00A4A96
:10214C007B68013B53600F214FF0FF30FFF790FF8E
:10215C00054B00229A60044B07221A600023184694
:10216C000837BD4680BD00BF10E000E080B582B0EE
:10217C0000AF78607868FFF72DFF00BF0837BD46C9
:10218C0080BD80B586B000AF0346B9607A60FB7342
:10219C0000237B61FFF742FF78617A68B968786940
:1021AC00FFF790FF024697F90F3011461846FFF7DC
:1021BC005FFF00BF1837BD4680BD80B582B000AF51
:1021CC000346FB7197F907301846FFF735FF00BF40
:1021DC000837BD4680BD80B582B000AF78607868A6
:1021EC00FFF7A2FF034618460837BD4680BD000026
:1021FC0080B48BB000AF7860396000237B62002321
:10220C003B6269E101227B6A02FA03F3FB613B68E2
:10221C001B68FA691340BB61BA69FB699A4240F0CA
:10222C0058813B685B689A4A93425ED0984A9342C5
:10223C0075D8984A934258D0964A93426FD8964A8A
:10224C00934252D0944A934269D8944A93424CD0C8
:10225C00924A934263D8924A934246D0904A934210
:10226C005DD8122B2AD8122B59D801A252F823F080
:10227C00F7220008D1220008E322000825230008D9
:10228C002B2300082B2300082B2300082B230008EA
:10229C002B2300082B2300082B2300082B230008DA
:1022AC002B2300082B2300082B2300082B230008CA
:1022BC002B230008D9220008ED220008794A93420A
:1022CC0013D02CE03B68DB683B6229E03B68DB68A1
:1022DC0004333B6224E03B68DB6808333B621FE05D
:1022EC003B68DB680C333B621AE03B689B68002B55
:1022FC0002D104233B6213E03B689B68012B05D1A0
:10230C0008233B627B68FA691A6109E008233B6287
:10231C007B68FA695A6103E000233B6200E000BF6E
:10232C00BB69FF2B01D87B6801E07B6804337B61C0
:10233C00BB69FF2B02D87B6A9B0002E07B6A083BDF
:10234C009B003B617B691A680F213B6901FA03F31F
:10235C00DB431A40396A3B6901FA03F31A437B6980
:10236C001A603B685B6803F08053002B00F0B1806F
:10237C004D4B9B694C4A43F0010393614A4B9B695B
:10238C0003F00103BB60BB68484A7B6A9B080233BD
:10239C0052F82330FB607B6A03F003039B000F228F
:1023AC0002FA03F3DB43FA681340FB607B68404A94
:1023BC00934213D07B683F4A93420DD07B683E4AD0
:1023CC00934207D07B683D4A934201D1032306E038
:1023DC00042304E0022302E0012300E000237A6AD4
:1023EC0002F0030292009340FA681343FB602F49FA
:1023FC007B6A9B080233FA6841F823203B685B68D0
:10240C0003F48013002B06D02D4B9A682C49BB6922
:10241C0013438B6006E02A4B9A68BB69DB4328495F
:10242C0013408B603B685B6803F40013002B06D0F1
:10243C00234BDA682249BB691343CB6006E0204B7F
:10244C00DA68BB69DB431E491340CB603B685B68B1
:10245C0003F40033002B06D0194B5A681849BB699A
:10246C0013434B6006E0164B5A68BB69DB431449B7
:10247C0013404B603B685B6803F48033002B21D026
:10248C000F4B1A680E49BB6913430B6021E000BF68
:10249C00000032100000311000002210000021104A
:1024AC00000012100000111000100240000001404A
:1024BC0000080140000C01400010014000140140D4
:1024CC00000401400B4B1A68BB69DB4309491340FC
:1024DC000B607B6A01337B623B681A687B6A22FA69
:1024EC0003F3002B7FF48EAE00BF00BF2C37BD462C
:1024FC0080BC70470004014080B483B000AF7860AA
:10250C000B467B8013467B707B78002B03D07A883C
:10251C007B681A6103E07B881A047B681A6100BF30
:10252C000C37BD4680BC704780B582B000AF034607
:10253C00FB80084B5A69FB881340002B06D0054AD8
:10254C00FB885361FB881846FFF778F900BF083702
:10255C00BD4680BD0004014080B586B000AF7860F8
:10256C007B68002B01D1012372E27B681B6803F0AE
:10257C000103002B00F08780924B5B6803F00C0387
:10258C00042B0CD08F4B5B6803F00C03082B12D17F
:10259C008C4B5B6803F48033B3F5803F0BD1894BD4
:1025AC001B6803F40033002B6CD07B685B68002B3A
:1025BC0068D101234CE27B685B68B3F5803F06D1A0
:1025CC00804B1B687F4A43F4803313602EE07B689A
:1025DC005B68002B0CD17B4B1B687A4A23F480334D
:1025EC001360784B1B68774A23F4802313601DE03B
:1025FC007B685B68B3F5A02F0CD1724B1B68714ADA
:10260C0043F4802313606F4B1B686E4A43F4803392
:10261C0013600BE06B4B1B686A4A23F48033136026
:10262C00684B1B68674A23F4802313607B685B68E4
:10263C00002B13D0FFF7A0FC386108E0FFF79CFCDF
:10264C0002463B69D31A642B01D9032300E25D4B8C
:10265C001B6803F40033002BF0D014E0FFF78CFC64
:10266C00386108E0FFF788FC02463B69D31A642BFB
:10267C0001D90323ECE1534B1B6803F40033002B0B
:10268C00F0D100E000BF7B681B6803F00203002B55
:10269C0063D04C4B5B6803F00C03002B0BD0494B05
:1026AC005B6803F00C03082B1CD1464B5B6803F4EE
:1026BC008033002B16D1434B1B6803F00203002B15
:1026CC0005D07B681B69012B01D00123C0E13D4B78
:1026DC001B6823F0F8027B685B69DB003949134304
:1026EC000B603AE07B681B69002B20D0364B012233
:1026FC001A60FFF741FC386108E0FFF73DFC024629
:10270C003B69D31A022B01D90323A1E12D4B1B6882
:10271C0003F00203002BF0D02A4B1B6823F0F802C5
:10272C007B685B69DB00274913430B6015E0264B84
:10273C0000221A60FFF720FC386108E0FFF71CFC50
:10274C0002463B69D31A022B01D9032380E11D4BAE
:10275C001B6803F00203002BF0D17B681B6803F0AD
:10276C000803002B3AD07B689B69002B19D0174BC0
:10277C0001221A60FFF700FC386108E0FFF7FCFB50
:10278C0002463B69D31A022B01D9032360E10D4B9E
:10279C005B6A03F00203002BF0D0012000F0CEFAAC
:1027AC001CE00A4B00221A60FFF7E6FB38610FE0D1
:1027BC00FFF7E2FB02463B69D31A022B08D903232D
:1027CC0046E100BF00100240000042428004424239
:1027DC00924B5B6A03F00203002BE9D17B681B6808
:1027EC0003F00403002B00F0A6800023FB758B4B39
:1027FC00DB6903F08053002B0DD1884BDB69874AD2
:10280C0043F08053D361854BDB6903F08053BB608D
:10281C00BB680123FB75824B1B6803F48073002B90
:10282C0018D17F4B1B687E4A43F480731360FFF70B
:10283C00A3FB386108E0FFF79FFB02463B69D31A04
:10284C00642B01D9032303E1754B1B6803F48073DC
:10285C00002BF0D07B68DB68012B06D16F4B1B6A19
:10286C006E4A43F0010313622DE07B68DB68002B9A
:10287C000CD16A4B1B6A694A23F001031362674B44
:10288C001B6A664A23F0040313621CE07B68DB6856
:10289C00052B0CD1614B1B6A604A43F00403136295
:1028AC005E4B1B6A5D4A43F0010313620BE05B4B0A
:1028BC001B6A5A4A23F001031362584B1B6A574A8E
:1028CC0023F0040313627B68DB68002B15D0FFF741
:1028DC0053FB38610AE0FFF74FFB02463B69D31A02
:1028EC0041F28832934201D90323B1E04B4B1B6A6E
:1028FC0003F00203002BEED014E0FFF73DFB386130
:10290C000AE0FFF739FB02463B69D31A41F28832E1
:10291C00934201D903239BE0404B1B6A03F0020353
:10292C00002BEED1FB7D012B05D13C4BDB693B4AE7
:10293C0023F08053D3617B68DB69002B00F0878028
:10294C00364B5B6803F00C03082B61D07B68DB69AA
:10295C00022B46D1334B00221A60FFF70DFB386176
:10296C0008E0FFF709FB02463B69D31A022B01D999
:10297C0003236DE0294B1B6803F00073002BF0D18F
:10298C007B681B6AB3F5803F08D1244B5B6823F44A
:10299C0000327B689B68214913434B601F4B5B687B
:1029AC0023F474127B68196A7B685B6A0B431B49BE
:1029BC0013434B601B4B01221A60FFF7DDFA3861A1
:1029CC0008E0FFF7D9FA02463B69D31A022B01D96A
:1029DC0003233DE0114B1B6803F00073002BF0D078
:1029EC0035E0104B00221A60FFF7C6FA386108E098
:1029FC00FFF7C2FA02463B69D31A022B01D9032313
:102A0C0026E0064B1B6803F00073002BF0D11EE090
:102A1C007B68DB69012B07D1012319E00010024010
:102A2C0000700040600042420B4B5B68FB60FB682F
:102A3C0003F480327B681B6A9A4206D1FB6803F46C
:102A4C0070127B685B6A9A4201D0012300E000237C
:102A5C0018461837BD4680BD0010024080B584B0C2
:102A6C0000AF786039607B68002B01D10123D0E086
:102A7C006A4B1B6803F007033A689A4210D9674BFC
:102A8C001B6823F0070265493B6813430B60634BDB
:102A9C001B6803F007033A689A4201D00123B8E09F
:102AAC007B681B6803F00203002B20D07B681B683B
:102ABC0003F00403002B05D0594B5B68584A43F4D0
:102ACC00E06353607B681B6803F00803002B05D0A0
:102ADC00534B5B68524A43F460535360504B5B68F2
:102AEC0023F0F0027B689B684D4913434B607B6875
:102AFC001B6803F00103002B40D07B685B68012B43
:102B0C0007D1474B1B6803F40033002B15D101236D
:102B1C007FE07B685B68022B07D1414B1B6803F09D
:102B2C000073002B09D1012373E03D4B1B6803F0AC
:102B3C000203002B01D101236BE0394B5B6823F0BE
:102B4C0003027B685B68364913434B60FFF714FA4A
:102B5C00F8600AE0FFF710FA0246FB68D31A41F25C
:102B6C008832934201D9032353E02D4B5B6803F069
:102B7C000C027B685B689B009A42EBD1274B1B686D
:102B8C0003F007033A689A4210D2244B1B6823F0D7
:102B9C00070222493B6813430B60204B1B6803F070
:102BAC0007033A689A4201D0012332E07B681B6824
:102BBC0003F00403002B08D0194B5B6823F4E0628C
:102BCC007B68DB68164913434B607B681B6803F01A
:102BDC000803002B09D0124B5B6823F460527B680E
:102BEC001B69DB000E4913434B6000F021F80246D1
:102BFC000B4B5B681B0903F00F030A49CB5C22FAF1
:102C0C0003F3094A1360094B1B681846FFF772F966
:102C1C00002318461037BD4680BD00BF002002407F
:102C2C000010024060530008000000200400002047
:102C3C0080B487B000AF0023FB600023BB6000238F
:102C4C007B6100237B6000233B611E4B5B68FB6058
:102C5C00FB6803F00C03042B02D0082B03D027E0F5
:102C6C00194B3B6127E0FB689B0C03F00F03174AE1
:102C7C00D35C7B60FB6803F48033002B10D0114BCA
:102C8C005B685B0C03F00103114AD35CBB607B688F
:102C9C000D4A03FB02F2BB68B2FBF3F37B6104E069
:102CAC007B680C4A02FB03F37B617B693B6102E0AE
:102CBC00054B3B6100BF3B6918461C37BD4680BCC9
:102CCC00704700BF0010024000127A0078530008D1
:102CDC008853000800093D0080B400AF024B1B680C
:102CEC001846BD4680BC70470000002080B500AF80
:102CFC00FFF7F2FF0246054B5B681B0A03F0070364
:102D0C000349CB5C22FA03F3184680BD0010024045
:102D1C007053000880B500AFFFF7DEFF0246054B8D
:102D2C005B68DB0A03F007030349CB5C22FA03F36D
:102D3C00184680BD001002407053000880B485B066
:102D4C0000AF78600A4B1B680A4AA2FB03235B0A9C
:102D5C007A6802FB03F3FB6000BFFB685A1EFA6043
:102D6C00002BF9D100BF00BF1437BD4680BC7047A3
:102D7C0000000020D34D621080B582B000AF7860A7
:102D8C007B68002B01D1012376E07B685B6A002B0A
:102D9C0008D17B685B68B3F5827F09D07B68002221
:102DAC00DA6105E07B6800221A617B6800225A61B7
:102DBC007B6800229A627B6893F85130DBB2002B5F
:102DCC0006D17B68002283F850207868FEF770FEED
:102DDC007B68022283F851207B681B681A687B6829
:102DEC001B6822F040021A607B685B6803F48272F5
:102DFC007B689B6803F404431A437B68DB6803F429
:102E0C0000631A437B681B6903F002031A437B6857
:102E1C005B6903F001031A437B689B6903F400733D
:102E2C001A437B68DB6903F038031A437B681B6A1F
:102E3C0003F0800342EA03017B689B6A03F40052AF
:102E4C007B681B680A431A607B689B691A0C7B6859
:102E5C001B6802F004025A607B681B68DA697B68A5
:102E6C001B6822F40062DA617B6800225A657B6879
:102E7C00012283F85120002318460837BD4680BD37
:102E8C0080B588B000AFF860B9603B601346FB803A
:102E9C000023FB77FB6893F85030012B01D1022300
:102EAC002DE1FB68012283F85020FFF765F8B8612B
:102EBC00FB88FB82FB6893F85130DBB2012B02D00C
:102ECC000223FB7716E1BB68002B02D0FB88002B9A
:102EDC0002D10123FB770DE1FB68032283F851201B
:102EEC00FB6800225A65FB68BA681A63FB68FA88AB
:102EFC009A86FB68FA88DA86FB6800229A63FB687C
:102F0C0000229A87FB680022DA87FB6800225A6449
:102F1C00FB6800221A64FB689B68B3F5004F0FD165
:102F2C00FB681B681A68FB681B6822F040021A6079
:102F3C00FB681B681A68FB681B6842F480421A60C5
:102F4C00FB681B681B6803F04003402B07D0FB6831
:102F5C001B681A68FB681B6842F040021A60FB6829
:102F6C00DB68B3F5006F4FD1FB685B68002B02D0B8
:102F7C00FB8A012B42D1FB681B6B1A88FB681B6810
:102F8C00DA60FB681B6B9A1CFB681A63FB68DB8EB0
:102F9C009BB2013B9AB2FB68DA862FE0FB681B6898
:102FAC009B6803F00203022B12D1FB681B6B1A887F
:102FBC00FB681B68DA60FB681B6B9A1CFB681A6366
:102FCC00FB68DB8E9BB2013B9AB2FB68DA8615E09C
:102FDC00FEF7D2FF0246BB69D31A3A689A4203D86D
:102FEC003B68B3F1FF3F02D13B68002B06D10323B2
:102FFC00FB77FB68012283F851207BE0FB68DB8EBA
:10300C009BB2002BCAD150E0FB685B68002B02D04E
:10301C00FB8A012B44D1FB681A6BFB681B680C33D1
:10302C0012781A70FB681B6B5A1CFB681A63FB68DE
:10303C00DB8E9BB2013B9AB2FB68DA8630E0FB6810
:10304C001B689B6803F00203022B13D1FB681A6BFD
:10305C00FB681B680C3312781A70FB681B6B5A1CCC
:10306C00FB681A63FB68DB8E9BB2013B9AB2FB6870
:10307C00DA8615E0FEF780FF0246BB69D31A3A6880
:10308C009A4203D83B68B3F1FF3F02D13B68002B57
:10309C0006D10323FB77FB68012283F8512029E03A
:1030AC00FB68DB8E9BB2002BC9D1BA693968F86812
:1030BC0000F0D8FB0346002B02D0FB6820225A6597
:1030CC00FB689B68002B0AD100233B61FB681B68E3
:1030DC00DB683B61FB681B689B683B613B69FB6879
:1030EC005B6D002B02D00123FB7703E0FB68012210
:1030FC0083F85120FB68002283F85020FB7F184690
:10310C002037BD4680BD80B588B002AFF860B9608D
:10311C003B601346FB800023FB75FB6893F8513032
:10312C00DBB2012B02D00223FB75FBE0FB685B6872
:10313C00B3F5827F12D1FB689B68002B0ED1FB6824
:10314C00042283F85120FA883B6800931346BA682E
:10315C00B968F86800F0EFF80346E8E0FB6893F80C
:10316C005030012B01D10223E1E0FB68012283F8EE
:10317C005020FEF701FF3861BB68002B02D0FB88A2
:10318C00002B02D10123FB75CCE0FB68042283F8F1
:10319C005120FB6800225A65FB68BA689A63FB6889
:1031AC00FA889A87FB68FA88DA87FB6800221A6328
:1031BC00FB6800229A86FB680022DA86FB680022F4
:1031CC001A64FB6800225A64FB689B68B3F5004FD5
:1031DC000FD1FB681B681A68FB681B6822F0400261
:1031EC001A60FB681B681A68FB681B6822F4804233
:1031FC001A60FB681B681B6803F04003402B07D068
:10320C00FB681B681A68FB681B6842F040021A6076
:10321C00FB68DB68002B6AD132E0FB681B689B689B
:10322C0003F00103012B15D1FB681B6803F10C02A1
:10323C00FB689B6B1278D2B21A70FB689B6B5A1CA2
:10324C00FB689A63FB68DB8F9BB2013B9AB2FB680D
:10325C00DA8715E0FEF790FE02463B69D31A3A680E
:10326C009A4203D83B68B3F1FF3F02D13B68002B75
:10327C0006D10323FB75FB68012283F8512051E032
:10328C00FB68DB8F9BB2002BC7D135E0FB681B685A
:10329C009B6803F00103012B13D1FB681B68DA68F0
:1032AC00FB689B6B92B21A80FB689B6B9A1CFB6849
:1032BC009A63FB68DB8F9BB2013B9AB2FB68DA879F
:1032CC0015E0FEF759FE02463B69D31A3A689A425A
:1032DC0003D83B68B3F1FF3F02D13B68002B06D10A
:1032EC000323FB75FB68012283F851201AE0FB686D
:1032FC00DB8F9BB2002BC9D13A693968F86800F0B2
:10330C005FFA0346002B02D0FB6820225A65FB684B
:10331C005B6D002B02D00123FB7503E0FB680122DF
:10332C0083F85120FB68002283F85020FB7D18465F
:10333C001837BD4680BD80B58CB000AFF860B96061
:10334C007A607B800123FB62002387F82B30FB68BB
:10335C0093F85030012B01D1022398E1FB68012234
:10336C0083F85020FEF708FE7862FB6893F8513022
:10337C0087F82330FB685B68FB617B887B8397F85D
:10338C002330012B0FD0FB69B3F5827F07D1FB688B
:10339C009B68002B03D197F82330042B03D0022316
:1033AC0087F82B306DE1BB68002B05D07B68002BB8
:1033BC0002D07B88002B03D1012387F82B3060E1EE
:1033CC00FB6893F85130DBB2042B03D0FB68052269
:1033DC0083F85120FB6800225A65FB687A689A636F
:1033EC00FB687A88DA87FB687A889A87FB68BA6800
:1033FC001A63FB687A88DA86FB687A889A86FB6897
:10340C0000221A64FB6800225A64FB681B681B6864
:10341C0003F04003402B07D0FB681B681A68FB685D
:10342C001B6842F040021A60FB68DB68B3F5006F62
:10343C007CD1FB685B68002B02D07B8B012B6AD1A3
:10344C00FB681B6B1A88FB681B68DA60FB681B6BDC
:10345C009A1CFB681A63FB68DB8E9BB2013B9AB229
:10346C00FB68DA8657E0FB681B689B6803F0020375
:10347C00022B1BD1FB68DB8E9BB2002B16D0FB6A98
:10348C00012B13D1FB681B6B1A88FB681B68DA6075
:10349C00FB681B6B9A1CFB681A63FB68DB8E9BB288
:1034AC00013B9AB2FB68DA860023FB62FB681B685F
:1034BC009B6803F00103012B19D1FB68DB8F9BB2D6
:1034CC00002B14D0FB681B68DA68FB689B6B92B20C
:1034DC001A80FB689B6B9A1CFB689A63FB68DB8FFA
:1034EC009BB2013B9AB2FB68DA870123FB62FEF7C1
:1034FC0043FD02467B6AD31ABA6B9A420BD8BB6B5C
:10350C00B3F1FF3F07D0032387F82B30FB68012270
:10351C0083F85120B5E0FB68DB8E9BB2002BA2D167
:10352C00FB68DB8F9BB2002B9DD180E0FB685B6856
:10353C00002B02D07B8B012B6FD1FB681A6BFB68C5
:10354C001B680C3312781A70FB681B6B5A1CFB68D7
:10355C001A63FB68DB8E9BB2013B9AB2FB68DA867E
:10356C005BE0FB681B689B6803F00203022B1CD119
:10357C00FB68DB8E9BB2002B17D0FB6A012B14D19E
:10358C00FB681A6BFB681B680C3312781A70FB68AB
:10359C001B6B5A1CFB681A63FB68DB8E9BB2013BEE
:1035AC009AB2FB68DA860023FB62FB681B689B6897
:1035BC0003F00103012B19D1FB68DB8F9BB2002BAD
:1035CC0014D0FB681B68DA68FB689B6BD2B21A706C
:1035DC00FB689B6B5A1CFB689A63FB68DB8F9BB286
:1035EC00013B9AB2FB68DA870123FB62FEF7C4FC4D
:1035FC0002467B6AD31ABA6B9A4203D8BB6BB3F1FF
:10360C00FF3F02D1BB6B002B07D1032387F82B3074
:10361C00FB68012283F8512033E0FB68DB8E9BB200
:10362C00002B9ED1FB68DB8F9BB2002B99D17A6A61
:10363C00B96BF86800F016F90346002B06D001238D
:10364C0087F82B30FB6820225A651AE0FB689B68D0
:10365C00002B0AD100237B61FB681B68DB687B6154
:10366C00FB681B689B687B617B69FB685B6D002B4F
:10367C0003D0012387F82B3003E0FB68012283F889
:10368C005120FB68002283F8502097F82B30184605
:10369C003037BD4680BD80B483B000AF78607B68A6
:1036AC0093F85130DBB218460C37BD4680BC7047DE
:1036BC0080B588B000AFF860B9603B601346FB7111
:1036CC00FEF75AFC0246BB6A9B1A3A681344FB612C
:1036DC00FEF752FCB861394B1B685B011B0DFA6994
:1036EC0002FB03F37B6154E03B68B3F1FF3F50D026
:1036FC00FEF742FC0246BB69D31AFA699A4202D918
:10370C00FB69002B3DD1FB681B685A68FB681B6882
:10371C0022F0E0025A60FB685B68B3F5827F11D13E
:10372C00FB689B68B3F5004F04D0FB689B68B3F54E
:10373C00806F07D1FB681B681A68FB681B6822F056
:10374C0040021A60FB689B6AB3F5005F0FD1FB68FF
:10375C001B681A68FB681B6822F400521A60FB682D
:10376C001B681A68FB681B6842F400521A60FB68FD
:10377C00012283F85120FB68002283F85020032398
:10378C0017E07B69002B01D10023FB617B69013BB6
:10379C007B61FB681B689A68BB681340BA689A42E5
:1037AC000CBF01230023DBB21A46FB799A429BD152
:1037BC00002318462037BD4680BD00BF0000002006
:1037CC0080B586B002AFF860B9607A60FB685B6860
:1037DC00B3F5827F11D1FB689B68B3F5004F04D021
:1037EC00FB689B68B3F5806F07D1FB681B681A6890
:1037FC00FB681B6822F040021A60FB685B68B3F53B
:10380C00827F17D1FB689B68B3F5806F12D17B6800
:10381C000093BB6800220121F868FFF749FF0346BB
:10382C00002B1AD0FB685B6D43F02002FB685A65D5
:10383C00032313E07B680093BB6800228021F868A7
:10384C00FFF736FF0346002B07D0FB685B6D43F098
:10385C002002FB685A65032300E00023184610374A
:10386C00BD4680BD80B586B002AFF860B9607A60A5
:10387C007B680093BB6800228021F868FFF718FF73
:10388C000346002B07D0FB685B6D43F02002FB68FE
:10389C005A65032300E0002318461037BD4680BD4F
:1038AC0080B582B000AF78607B68002B01D101231A
:1038BC0042E07B6893F84130DBB2002B06D17B6889
:1038CC00002283F840207868FEF78CFA7B6824226B
:1038DC0083F841207B681B68DA687B681B6822F4DC
:1038EC000052DA60786800F01DF97B681B681A6971
:1038FC007B681B6822F490421A617B681B685A69CA
:10390C007B681B6822F02A025A617B681B68DA68A4
:10391C007B681B6842F40052DA607B6800225A64B0
:10392C007B68202283F841207B68202283F8422088
:10393C007B6800225A63002318460837BD4680BDB9
:10394C0080B58AB002AFF860B9603B601346FB806B
:10395C0000237B61FB6893F84130DBB2202B6DD1E7
:10396C00BB68002B02D0FB88002B01D1012366E041
:10397C00FB6800225A64FB68212283F84120FEF781
:10398C00FBFA7861FB68FA889A84FB68FA88DA8417
:10399C00FB689B68B3F5805F08D1FB681B69002B43
:1039AC0004D10023FB61BB68BB6103E0BB68FB6116
:1039BC000023BB612AE03B6800937B6900228021D5
:1039CC00F86800F040F80346002B01D0032336E0E2
:1039DC00FB69002B0BD1BB691B881A46FB681B6863
:1039EC00C2F308025A60BB690233BB6107E0FB6992
:1039FC001A78FB681B685A60FB690133FB61FB6832
:103A0C00DB8C9BB2013B9AB2FB68DA84FB68DB8CE3
:103A1C009BB2002BCFD13B6800937B6900224021E5
:103A2C00F86800F010F80346002B01D0032306E0E1
:103A3C00FB68202283F84120002300E00223184673
:103A4C002037BD4680BD80B590B000AFF860B9603E
:103A5C003B601346FB7150E0BB6CB3F1FF3F4CD0A5
:103A6C00BB6C002B07D0FEF787FA02463B68D31AD3
:103A7C00BA6C9A4241D2FB681B680C33BB62BB6ABE
:103A8C0053E8003F7B627B6A23F4D073FB63FB68D3
:103A9C001B680C33FA6B7A633B63396B7A6B41E8C6
:103AAC000023FB62FB6A002BE5D1FB681B68143317
:103ABC007B617B6953E8003F3B613B6923F0010369
:103ACC00BB63FB681B681433BA6B3A62FB61F96920
:103ADC003A6A41E80023BB61BB69002BE5D1FB6866
:103AEC00202283F84120FB68202283F84220FB68C7
:103AFC00002283F8402003230FE0FB681B681A6840
:103B0C00BB681340BA689A420CBF01230023DBB296
:103B1C001A46FB799A429FD0002318464037BD467F
:103B2C0080BD000080B584B000AF78607B681B68F6
:103B3C001B6923F440517B68DA687B681B680A4375
:103B4C001A617B689A687B681B691A437B685B699E
:103B5C001343BB607B681B68DB6823F4B05323F012
:103B6C000C037A681268B9680B43D3607B681B68D6
:103B7C005B6923F440717B689A697B681B680A4314
:103B8C005A617B681B682C4A934203D1FFF7C2F839
:103B9C00F86002E0FFF7AAF8F860FA6813469B0099
:103BAC0013449A001A447B685B689B00B2FBF3F3E6
:103BBC00224AA2FB03235B091901FA6813469B00F6
:103BCC0013449A001A447B685B689B00B2FBF3F2C7
:103BDC001A4BA3FB02035B09642000FB03F3D31A0B
:103BEC001B013233154AA2FB03235B0903F0F003DC
:103BFC001944FA6813469B0013449A001A447B68D4
:103C0C005B689B00B2FBF3F20C4BA3FB02035B095A
:103C1C00642000FB03F3D31A1B013233074AA2FBC7
:103C2C0003235B0903F00F027B681B680A449A604C
:103C3C0000BF1037BD4680BD003801401F85EB51D9
:103C4C000A22002100F052BA014B1868704700BFDD
:103C5C000C00002008B5074B044613B10021AFF34C
:103C6C000080054B1868836A03B198472046FDF71E
:103C7C00E0FF00BF000000008C53000870B5002668
:103C8C000C4D0D4C641BA410A64209D101F000FB95
:103C9C0000260A4D0A4C641BA410A64205D170BD27
:103CAC0055F8043B98470136EEE755F8043B984726
:103CBC000136F2E7D8550008D8550008D855000849
:103CCC00DC550008024B0146186800F08BB800BFA9
:103CDC000C000020024B0146186800F01BB800BF16
:103CEC000C00002010B501390244904201D1002093
:103CFC0005E0037811F8014FA34201D0181B10BD49
:103D0C000130F2E703460244934200D1704703F8B6
:103D1C00011BF9E738B50546002940D051F8043CA1
:103D2C000C1F002BB8BFE41800F012FB1C4A1368E0
:103D3C0033B9636014602846BDE8384000F00EBB10
:103D4C00A34208D9206821188B4201BF19685B680F
:103D5C0009182160EDE71A465B680BB1A342FAD94A
:103D6C0011685018A0420BD12068014450188342AE
:103D7C001160E0D118685B68014411605360DAE7A8
:103D8C0002D90C232B60D6E7206821188B4201BF87
:103D9C0019685B680918216063605460CBE738BD13
:103DAC00EC01002070B50E4E0C463168054611B979
:103DBC0000F08CF830602146284600F087F8431C50
:103DCC000AD0C41C24F00304A04207D0211A2846B0
:103DDC0000F07CF8013001D14FF0FF34204670BD6B
:103DEC00F00100202DE9F041CD1C25F0030508352C
:103DFC000C2D38BF0C25002D074601DBA94205D937
:103E0C000C2300263B603046BDE8F0812E4E00F0BE
:103E1C009FFA33681C4634BB29463846FFF7C2FF6D
:103E2C00431C04464DD134682646002E40D12368ED
:103E3C003146384604EB030800F048F880453AD187
:103E4C00216803356D1A25F0030508350C2D38BF94
:103E5C000C2538462946FFF7A5FF01302BD02368E7
:103E6C002B4423600EE02268521B1ED40B2A16D959
:103E7C006119A342256018BF5960636808BF31609F
:103E8C0062514B60384604F10B0600F067FA26F0DD
:103E9C000706231DF21AB6D09B1BA350B3E762682A
:103EAC00A3420CBF32605A60ECE723466468B2E769
:103EBC0034467668B9E70C2338463B6000F04EFA7E
:103ECC00A1E72560DEE700BFEC01002038B5002338
:103EDC00054D044608462B60FDF71EFF431C02D11E
:103EEC002B6803B1236038BDF80100200EB46FF0CD
:103EFC00004100B59CB01DAB029006900791049157
:103F0C000848094953F8042B0591006802A901934C
:103F1C0000F086FA0022029B1A701CB05DF804EBCC
:103F2C0003B070470C0000200802FFFF034611F895
:103F3C00012B03F8012B002AF9D17047164B2DE900
:103F4C00F0411F680546BC6D0E46ECB95020FFF7DA
:103F5C00B9FE0246B86520B95721104B104800F045
:103F6C00CFF8C0E90044C0E90244C0E90444C0E908
:103F7C000A44C0E90C44C0E90E44C0E91044C0E94D
:103F8C00124484610477446231462846BA6D012399
:103F9C00BDE8F04100F006B80C000020905300087A
:103FAC00A7530008F0B508B9106888B104460F464D
:103FBC00204614F8015B17F8016B1EB965B9284649
:103FCC00156005E0B542F6D1002BF0D114600370FA
:103FDC00F0BD1C460CE015B90E4614F8013B16F862
:103FEC00015BAB42F7D1002BF3D0002304F8013C6A
:103FFC001460EDE7012B2DE9F047804601D0242B0E
:10400C0006D9FFF721FE162303600020BDE8F087D8
:10401C000D46354F284615F8014BE65D16F008069F
:10402C00F8D12D2C2FD101262C78851C002B57D0A4
:10403C00102B09D1302C07D1287800F0DF0058283C
:10404C0049D110236C780235002706F1004E0EF191
:10405C00FF3EBEFBF3F9384603FB19EAA4F1300C22
:10406C00BCF1090F14D86446A34222DD002F1DDBDE
:10407C0081451BD301D1A24518DB012700FB03406E
:10408C0015F8014BEAE72B2C04BF2C78851CCDE7E7
:10409C00A4F1410CBCF1190F01D8373CE4E7A4F1B1
:1040AC00610CBCF1190F04D8573CDDE74FF0FF371A
:1040BC00E6E7002F07DA22237046C8F80030002A02
:1040CC00A4D0691E05E006B14042002A9ED0002F04
:1040DC00F7D111609AE73024002BB5D10823B3E750
:1040EC00302CA9D00A23AFE74154000813460A46E6
:1040FC00014602480068FFF77DBF00BF0C0000209E
:10410C001FB514461A46094B05461B68D8684CB1B6
:10411C00074BCDE9013400912B46064900F0E4F839
:10412C0000F082FE044B1C46F3E700BF0C0000209D
:10413C0004540008115400083F540008002310B523
:10414C000446C0E90033C0E90433836081814366CF
:10415C00C2818361194608225C30FFF7D3FD054B01
:10416C0024626362044BA362044BE362044B23633B
:10417C0010BD00BF094C00082B4C0008634C000814
:10418C00874C0008014900F0C1B800BF694F000816
:10419C00682270B54D1E55430E4605F17401FFF7AC
:1041AC0021FE044640B10021C0E900160C30A0608D
:1041BC0005F16802FFF7A6FD204670BD014800F02E
:1041CC00C5B800BFF5010020014800F0C0B800BF21
:1041DC00F5010020014800F0B9B800BFF60100203D
:1041EC00014800F0B4B800BFF601002010B5044639
:1041FC00FFF7F0FFA3691BB1BDE81040FFF7F0BF5C
:10420C00C4E912332365134B134A1B68A262A34201
:10421C0008BF0123204608BFA36100F01FF86060AF
:10422C00204600F01BF8A060204600F017F8002292
:10423C000421E0606068FFF781FF01220921A0687A
:10424C00FFF77CFF02221221E068FFF777FF0123C2
:10425C00A361D1E78C53000891410008F8B50746DB
:10426C00FFF7ACFF1E4B1E68B36913B93046FFF75E
:10427C00BDFF4836D6E90134013B03D533680BB397
:10428C003668F7E7B4F90C50D5B9164B04F1580061
:10429C00E360656600F059F8FFF796FF082229469F
:1042AC00C4E90155C4E904552560A56104F15C001D
:1042BC00FFF728FDC4E90D55C4E912552046F8BD99
:1042CC006834D9E704213846FFF762FF04463060B2
:1042DC000028D5D1FFF778FF0C233B60EEE700BF39
:1042EC008C5300080100FFFF0EB403B5014603AB6D
:1042FC00054853F8042B0068019300F0B9F902B09B
:10430C005DF804EB03B070470C0000202DE9F84376
:10431C0006468846002700F14804D4E90195B9F116
:10432C00010905D52468002CF7D13846BDE8F8837F
:10433C00AB89012B07D9B5F90E30013303D02946CF
:10434C003046C04707436835E9E770477047704708
:10435C000148FFF7FBBF00BFF40100200148FFF745
:10436C00F6BF00BFF40100202DE9F0478E688246AD
:10437C009E420C4690461F4638D88A8912F4906F9C
:10438C0032D0256809690133A5EB010965694B44F5
:10439C0005EB450505EBD5756D109D4238BF1D46E7
:1043AC00530531D52946FFF71DFD064650B90C23A0
:1043BC004FF0FF30CAF80030A38943F04003A381CB
:1043CC00BDE8F0874A46216900F08AFEA38923F4F0
:1043DC00906343F08003A38126614E4426603E46E1
:1043EC006561A5EB0905A560BE4200D93E46324683
:1043FC004146206800F082FEA36800209B1BA3604E
:10440C00236833442360DBE72A4600F091FE06461E
:10441C000028E1D150462169FFF77CFCC7E700007A
:10442C002DE9F04F98468B8907461B060D4614461E
:10443C009DB00ED50B6963B94021FFF7D3FC286002
:10444C00286120B90C233B604FF0FF30D1E04023B2
:10445C006B610023099320238DF8293030234FF012
:10446C000109CDF80C80DFF8A4818DF82A302346A1
:10447C009A4613F8012B0AB1252AF9D1BAEB040B91
:10448C000BD05B46224629463846FFF76DFF0130BC
:10449C0000F0AA80099A5A4409929AF80030002B2D
:1044AC0000F0A28000234FF0FF32CDE905230AF182
:1044BC00010A049307938DF853301A93544605223E
:1044CC0014F8011B514800F0FDFD049AD8B9D00630
:1044DC0044BF20238DF85330110744BF2B238DF894
:1044EC0053309AF800302A2B15D0544600204FF048
:1044FC000A0C079A214611F8013B303B092B4ED987
:10450C00B0B1079214E0A0EB080309FA03F31343CC
:10451C00A2460493D2E7039B191D1B680391002B41
:10452C00BBBF5B4242F0020207930793B8BF0492F1
:10453C0023782E2B0CD163782A2B35D1039B023494
:10454C001A1D1B680392002BB8BF4FF0FF33059365
:10455C00DFF8BCA003225046217800F0B3FD40B137
:10456C004023A0EB0A0003FA00F0049B0134034340
:10457C00049314F8011B062226488DF8281000F02D
:10458C00A1FD002838D0244B1BBB039B073323F021
:10459C00070308330393099B3344099367E70C46DD
:1045AC0001200CFB0232A5E700234FF00A0C194640
:1045BC0001340593204610F8012B303A092A03D90F
:1045CC00002BC5D00591C3E7044601230CFB012148
:1045DC00F0E703AB00932A463846104B04A9AFF31F
:1045EC000080421C0646D6D1AB895B063FF52CAF4A
:1045FC0009981DB0BDE8F08F03AB00932A463846EE
:10460C00064B04A900F0D4F9EBE700BFA455000851
:10461C00AA550008AE5500080000000075430008BC
:10462C00936810B4013B002B936007DA9469A342A2
:10463C0001DB0A2902D110BC00F024BB1368581C02
:10464C0010601970084610BC7047F8B506460F4646
:10465C001446D518AC4201D1002007E03A4630464A
:10466C0014F8011BFFF7DCFF431CF3D1F8BD00006D
:10467C002DE9F04F0D461446984606469DB018B1EC
:10468C0083690BB9FFF7B2FD894B9D421BD175684D
:10469C006B6ED90705D4AB899A0502D4A86DFFF7C8
:1046AC0055FEAB891B0701D52B69EBB92946304662
:1046BC0000F04CFBC0B16B6EDC070ED54FF0FF3039
:1046CC001DB0BDE8F08F7B4B9D4201D1B568DFE793
:1046DC00794B9D4208BFF568DAE7AB899805EDD4B4
:1046EC00A86DFFF734FEE9E70023099320238DF82A
:1046FC00293030234FF00109CDF80C80DFF8BC8154
:10470C008DF82A3023469A4613F8012B0AB1252A34
:10471C00F9D1BAEB040B0BD05B4622462946304646
:10472C00FFF793FF013000F0AA80099A5A440992CE
:10473C009AF80030002B00F0A28000234FF0FF32DB
:10474C00CDE905230AF1010A049307938DF8533040
:10475C001A935446052214F8011B584800F0B2FC79
:10476C00049AD8B9D10644BF20238DF853301307CF
:10477C0044BF2B238DF853309AF800302A2B15D0D8
:10478C00544600204FF00A0C079A214611F8013BC1
:10479C00303B092B4ED9B0B1079214E0A0EB0803C3
:1047AC0009FA03F31343A2460493D2E7039B191DA2
:1047BC001B680391002BBBBF5B4242F002020793C4
:1047CC000793B8BF049223782E2B0CD163782A2B35
:1047DC0035D1039B02341A1D1B680392002BB8BF02
:1047EC004FF0FF330593DFF8D8A003225046217811
:1047FC0000F068FC40B14023A0EB0A0003FA00F083
:10480C00049B01340343049314F8011B06222D4826
:10481C008DF8281000F056FC00283FD02A4B1BBB0B
:10482C00039B073323F0070308330393099B3B4493
:10483C00099367E70C4601200CFB0232A5E7002325
:10484C004FF00A0C194601340593204610F8012B41
:10485C00303A092A03D9002BC5D00591C3E7044689
:10486C0001230CFB0121F0E703AB00932A463046F1
:10487C00164B04A9AFF300800746781CD6D16B6E9B
:10488C00D90705D4AB899A0502D4A86DFFF75FFD53
:10489C00AB895B063FF512AF099811E703AB0093A8
:1048AC002A463046094B04A900F082F8E4E700BF21
:1048BC00645500088455000844550008A4550008A8
:1048CC00AA550008AE550008000000005746000825
:1048DC002DE9F047164699468A680B6907469342BC
:1048EC00B8BF1346336091F843200C46DDF82080A6
:1048FC000AB1013333602368990642BF336802332F
:10490C003360256815F0060506D104F1190AE36831
:10491C0032689B1AAB4228DC94F84320131E2268A1
:10492C0018BF012392062DD44946384604F14302A0
:10493C00C047013020D02368E56803F00603042B40
:10494C0018BF002532684FF00006A36808BFAD1AE7
:10495C00226908BF25EAE5759342C4BF9B1AED187E
:10496C001A34B5421AD1002008E0012352464946B8
:10497C003846C047013003D14FF0FF30BDE8F08717
:10498C000135C4E73020E11881F843005A1C94F833
:10499C0045102244023382F84310C5E70123224616
:1049AC0049463846C0470130E6D00136D9E7000009
:1049BC002DE9FF470F7E9146782F80460C469A468C
:1049CC000C9D01F1430207D8622F0AD8002F00F08A
:1049DC00D980582F00F0A48004F1420584F842706D
:1049EC003AE0A7F16303152BF6D801A151F823F097
:1049FC00554A0008694A0008E5490008E5490008DD
:104A0C00E5490008E5490008694A0008E54900083D
:104A1C00E5490008E5490008E5490008774B00081E
:104A2C00994A0008594B0008E5490008E549000877
:104A3C00994B0008E5490008994A0008E549000827
:104A4C00E5490008614B00082B681A1D1B682A6099
:104A5C0004F1420584F842300123A4E0206829685F
:104A6C00060601F104030AD50E682B60002E03DA4A
:104A7C002D23764284F843300A235E4819E00E68F1
:104A8C0010F0400F2B6018BF36B2EFE72B68206890
:104A9C00191D2960010601D51E6802E04606FBD5EA
:104AAC001E886F2F0CBF08230A235248002184F85C
:104ABC0043106568002DA8BF2168A560A4BF21F034
:104ACC00040121600EB9002D4DD01546B6FBF3F153
:104ADC0003FB1167C75D05F8017D3746BB420E46E7
:104AEC00F4D9082B0BD12368DE0708D5236961683C
:104AFC009942DEBF302305F8013C05F1FF35521B0E
:104B0C0022614B4621464046CDF800A003AAFFF790
:104B1C00DFFE01304CD14FF0FF3004B0BDE8F08720
:104B2C00344881F845702968236851F8046B296072
:104B3C001D0614D5DF0744BF43F0200323601EB9C4
:104B4C00236823F0200323601023AFE7236843F08E
:104B5C00200323607823284884F84530E3E759067E
:104B6C0048BFB6B2E6E71546BBE72B682668181DAA
:104B7C006169286035061B6801D5196002E0700672
:104B8C00FBD51980002315462361BAE72B68002159
:104B9C001A1D2A601D686268284600F093FA08B155
:104BAC00401B606063682361002384F84330A8E7EE
:104BBC002A46494640462369D0470130ABD023688A
:104BCC009B0713D4E068039B9842B8BF1846A4E730
:104BDC000123324649464046D04701309BD001352F
:104BEC00E36803995B1AAB42F2DCEBE7002504F1B6
:104BFC001906F5E7B5550008C655000810B50C4662
:104C0C00B1F90E1000F0C4FA0028ABBF636DA38994
:104C1C001B1823F48053ACBF6365A38110BD2DE931
:104C2C00F0411F468B890546DB050C46164605D51B
:104C3C0002230022B1F90E1000F0CCF9A389324600
:104C4C0023F48053A38128463B46B4F90E10BDE8EB
:104C5C00F04100F069B810B50C46B1F90E1000F037
:104C6C00B9F9431CA38915BF606523F4805343F441
:104C7C008053A38118BFA38110BDB1F90E1000F0B1
:104C8C00DBB80000F8B50E461446054618B183692A
:104C9C000BB9FFF7ABFA214B9C422BD16C68A36983
:104CAC00A360A3891A072FD523696BB323692068E6
:104CBC00F6B2C01A63693746834204DC21462846A3
:104CCC0000F04CF930BBA3680130013BA3602368B2
:104CDC005A1C22601E706369834204D0A389DB07CF
:104CEC0006D50A2E04D12146284600F037F988B99A
:104CFC003846F8BD0A4B9C4201D1AC68CFE7094B52
:104D0C009C4208BFEC68CAE72146284600F01EF812
:104D1C000028CBD04FF0FF37EAE700BF64550008FE
:104D2C00845500084455000838B504460846114619
:104D3C000022054D2A601A46FCF7A2FF431C02D143
:104D4C002B6803B1236038BDF8010020324B70B5DD
:104D5C001D6806460C4625B1AB6913B92846FFF70A
:104D6C0045FA2E4B9C420FD16C68A389B4F90C20E8
:104D7C0019072CD4DD0611D40923336042F040030B
:104D8C004FF0FF30A3813EE0254B9C4201D1AC6833
:104D9C00EBE7244B9C4208BFEC68E6E7580712D5BA
:104DAC00616B41B104F14403994202D03046FEF7E5
:104DBC00B1FF00236363A38923F02403A3810023A1
:104DCC00636023692360A38943F00803A3812369EB
:104DDC004BB9A38903F42073B3F5007F03D02146AC
:104DEC00304600F02FF9A089B4F90C2010F0010323
:104DFC000AD00023A36063695B42A361236943B9B2
:104E0C0010F08000BAD170BD810758BF6369A360F0
:104E1C00F4E70020F7E700BF0C0000206455000801
:104E2C008455000844550008062008B500F0EAF93E
:104E3C000120FCF7FEFE000038B50023054D0446AA
:104E4C0008462B60FCF738FF431C02D12B6803B1DA
:104E5C00236038BDF80100208A89F8B50546100793
:104E6C000C4657D44B68002B04DC0B6C002B01DC7C
:104E7C000020F8BDE66A002EFAD0002312F480520E
:104E8C002F682B6032D0606DA3895A0705D56368F3
:104E9C00C01A636B0BB1236CC01A00230246E66A7E
:104EAC002846216AB047431CA38906D129681D29CD
:104EBC002CD8294ACA40D60728D50022626022691C
:104ECC00D904226004D5421C01D12B6803B960655A
:104EDC00616B2F600029CBD004F14403994202D0BE
:104EEC002846FEF717FF00206063C2E7216A012302
:104EFC002846B047411CC7D12B68002BC4D01D2BB2
:104F0C0001D0162B01D12F60B2E7A38943F04003E7
:104F1C00A381AEE70F69002FAAD0930718BF002317
:104F2C000E6808BF4B69F61B0F608B60002E9FDD6F
:104F3C0033463A462846216AD4F828C0E047002870
:104F4C0006DCA3894FF0FF3043F04003A38190E7C8
:104F5C000744361AEAE700BF0100402038B50B6958
:104F6C0005460C4613B90025284638BD18B183698F
:104F7C000BB9FFF73BF9144B9C421BD16C68B4F98D
:104F8C000C30002BEFD0626ED00704D4990502D4FC
:104F9C00A06DFFF7DBF928462146FFF75DFF636E36
:104FAC000546DA07E0D4A3899B05DDD4A06DFFF795
:104FBC00CEF9D9E7054B9C4201D1AC68DFE7044B35
:104FCC009C4208BFEC68DAE7645500088455000879
:104FDC004455000838B50446084611460022054DD4
:104FEC002A601A46FCF78CFE431C02D12B6803B1D5
:104FFC00236038BDF801002070B50E46B1F90E10D3
:10500C00144600291D4696B008DA0022B6F90C3079
:10501C002A601A0610D44FF480630EE06A4600F042
:10502C000DF90028F1DB019A02F47042A2F500534D
:10503C005A425A412A60EEE740230020236016B002
:10504C0070BD00008B8973B59D0706460C4607D5CD
:10505C0004F14703236023610123636102B070BD37
:10506C006A4601ABFFF7C8FF009905463046FEF7CC
:10507C00B9FE48B9B4F90C309A05EFD423F0030308
:10508C0043F00203A381E3E70D4BB362A3892060D5
:10509C0043F08003A381009B20616361019B5BB1A2
:1050AC003046B4F90E1000F0DBF828B1A38923F0D8
:1050BC00030343F00103A381A0890543A581CDE738
:1050CC0091410008034610B5C9B2024493421846F8
:1050DC0001D1002003E0047801338C42F6D110BDDD
:1050EC000A44914200F1FF3300D1704710B511F81A
:1050FC00014B914203F8014FF9D110BD884210B514
:10510C0001EB020402D98442234607D8431EA14274
:10511C0008D011F8012B03F8012FF8E701460244DF
:10512C008A4200D110BD13F8014D02F8014DF7E78A
:10513C002DE9F041804614460E4621B91146BDE8D2
:10514C00F041FEF74FBE2AB9FEF7E4FD254628468E
:10515C00BDE8F08100F094F88442074602D8B4EB25
:10516C00500F12D821464046FEF73CFE054600285B
:10517C00EDD0BC422246314628BF3A46FFF7B0FF7D
:10518C0031464046FEF7C6FDE1E73546DFE7000055
:10519C0038B50446084611460022054D2A601A46C9
:1051AC00FCF751FD431C02D12B6803B1236038BDC1
:1051BC00F80100201F2938B504460D4604D91623E2
:1051CC0003604FF0FF3038BD426C12B152F8213001
:1051DC004BB9204600F030F82A4601462046BDE87F
:1051EC00384000F017B8012B0AD0591C03D11623F4
:1051FC0003600120E7E70024284642F82540984741
:10520C000020E0E7024B01461868FFF7D3BF00BF50
:10521C000C00002038B50023064D04460846114604
:10522C002B60FCF7F6FC431C02D12B6803B1236006
:10523C0038BD00BFF8010020FCF7E4BC38B50023F2
:10524C00064D0446084611462B60FCF740FD431CF6
:10525C0002D12B6803B1236038BD00BFF8010020D8
:10526C0038B50023054D044608462B60FCF73EFD7F
:10527C00431C02D12B6803B1236038BDF801002018
:10528C0051F8043C181F002BBCBF0B58C0187047BA
:10529C00F8B500BFF8BC08BC9E467047F8B500BF17
:0852AC00F8BC08BC9E467047E7
:1052B40050494E473B25643B300000006E656967EA
:1052C40068626F722069642025643A20727373697E
:1052D4002025640A000000003B000000456E76694A
:1052E400616E646F206D656E73616A650A0000000B
:1052F4004573706572616E646F2072657370756555
:105304007374612E2E2E0A00257320727373693A0A
:1053140025640A00414E5350494E470049443A20FF
:10532400256420727373693A2025640A0000000022
:1053340050494E4700000000414E5350494E473BF0
:1053440025643B25640000000A4D656E73616A653F
:1053540020656E766961646F000000000000000043
:105364000000000001020304060708090000000011
:105374000102030402030405060708090A0B0C0DC5
:105384000E0F101001020000100000205245454E7F
:1053940054206D616C6C6F63207375636365656421
:1053A4006564002F6275696C642F676E752D746F68
:1053B4006F6C732D666F722D73746D33325F313081
:1053C4002E332D323032312E31302E3230323131D3
:1053D4003130352D313130302F7372632F6E657754
:1053E4006C69622F6E65776C69622F6C6962632FDA
:1053F400737472696E672F737472746F6B2E6300AB
:105404002C2066756E6374696F6E3A200061737345
:10541400657274696F6E2022257322206661696C3F
:1054240065643A2066696C6520222573222C206C01
:10543400696E65202564257325730A0000202020E9
:105444002020202020202828282828202020202030
:105454002020202020202020202020202088101000
:10546400101010101010101010101010100404045C
:10547400040404040404041010101010101041411A
:105484004141414101010101010101010101010108
:10549400010101010101010110101010101042421C
:1054A40042424242020202020202020202020202D8
:1054B4000202020202020202101010102000000078
:1054C40000000000000000000000000000000000D8
:1054D40000000000000000000000000000000000C8
:1054E40000000000000000000000000000000000B8
:1054F40000000000000000000000000000000000A8
:105504000000000000000000000000000000000097
:105514000000000000000000000000000000000087
:105524000000000000000000000000000000000077
:105534000000000000000000000000000000000067
:105544000000000000000000000000000000000057
:105554000000000000000000000000000000000047
:105564000000000000000000000000000000000037
:105574000000000000000000000000000000000027
:105584000000000000000000000000000000000017
:105594000000000000000000000000000000000007
:1055A400232D302B2000686C4C0065666745464708
:1055B400003031323334353637383941424344458B
:1055C40046003031323334353637383961626364FA
:0455D4006566000008
:0455D8003101000895
:0455DC000D010008B5
:1055E0000024F40010000000010000001000002062
:1055F0000000000064550008845500084455000868
:10560000000000000000000000000000000000009A
:10561000000000000000000000000000000000008A
:10562000000000000000000000000000000000007A
:10563000000000000000000000000000000000006A
:10564000000000000000000000000000000000005A
:0400000508001E8948
:00000001FF
